:0200000460009A
:10000000464346420004015600000000010303007D
:1000100000000000000000000000000000000000E0
:1000200000000000000000000000000000000000D0
:1000300000000000000000000000000000000000C0
:1000400000000000000406000000000000000000A6
:100050000000800000000000000000000000000020
:100060000000000000000000000000000000000090
:100070000000000000000000000000000000000080
:10008000EB04180A063204260000000000000000FD
:100090000000000000000000000000000000000060
:1000A0000000000000000000000000000000000050
:1000B0000000000000000000000000000000000040
:1000C0000000000000000000000000000000000030
:1000D0000000000000000000000000000000000020
:1000E0000000000000000000000000000000000010
:1000F0000000000000000000000000000000000000
:1001000000000000000000000000000000000000EF
:1001100000000000000000000000000000000000DF
:1001200000000000000000000000000000000000CF
:1001300000000000000000000000000000000000BF
:1001400000000000000000000000000000000000AF
:10015000000000000000000000000000000000009F
:10016000000000000000000000000000000000008F
:10017000000000000000000000000000000000007F
:10018000000000000000000000000000000000006F
:10019000000000000000000000000000000000005F
:1001A000000000000000000000000000000000004F
:1001B000000000000000000000000000000000003F
:1001C000000100000010000000000000000000001E
:1001D000000004000000000000000000000000001B
:1001E000000000000000000000000000000000000F
:1001F00000000000000000000000000000000000FF
:1002000000000000000000000000000000000000EE
:1002100000000000000000000000000000000000DE
:10100000D10020410020006000000000000000002E
:1010100020100060001000600000000000000000D0
:1010200000000060D0A9010000000000FFFFFFFFEA
:1010300000000000000000000000000000000000B0
:1010400000000000000000000000000000000000A0
:101050000000000000000000000000000000000090
:101060000000000000000000000000000000000080
:1020000040C7282015A50060B348016001A5006005
:1020100001A5006001A5006001A5006000000000AE
:10202000000000000000000000000000F5A50060B6
:1020300001A5006000000000A1A5006075B7006068
:1020400065A7006065A7006065A7006065A70060E0
:1020500065A7006065A7006065A7006065A70060D0
:1020600065A7006065A7006065A7006065A70060C0
:1020700065A7006065A7006065A7006065A70060B0
:1022C00090F800F06DE9024520F007016FF0000C76
:1022D00010F0070491F820F040F049804FF000041E
:1022E0006FF00700D1E9002391F840F000F10800F9
:1022F00082FA4CF2A4FA8CF283FA4CF3A2FA8CF331
:102300004BBBD1E9022382FA4CF200F10800A4FA97
:102310008CF283FA4CF3A2FA8CF3E3B9D1E90423EB
:1023200082FA4CF200F10800A4FA8CF283FA4CF322
:10233000A2FA8CF37BB9D1E9062301F1200182FADC
:102340004CF200F10800A4FA8CF283FA4CF3A2FAE2
:102350008CF3002BC6D0002A04BF04301A4612BAF0
:10236000B2FA82F2FDE8024500EBD2007047D1E9F3
:10237000002304F00305C4F100004FEAC50514F082
:10238000040F91F840F00CFA05F562EA05021CBF53
:1023900063EA050362464FF00004A9E7000000006D
:1023A00001F0FF01102A2BDB10F0070F08D010F806
:1023B000013B013A8B422DD010F0070F42B3F6D10A
:1023C000F0B441EA012141EA014122F007047FF023
:1023D00000070023F0E80256083C85EA010586EA7A
:1023E000010685FA47F5A3FA87F586FA47F6A5FAB6
:1023F00087F68EB9EED1F0BC01F0FF0102F00702C2
:1024000032B110F8013B013A83EA010313B1F8D16C
:102410000020704701387047002D06BF354603384D
:10242000073815F0010F07D1013015F4807F02BF86
:10243000013015F4C03F0130F0BC0138704700BFD7
:10244000844641EA000313F003036DD1403A41D3BF
:1024500051F8043B40F8043B51F8043B40F8043B7E
:1024600051F8043B40F8043B51F8043B40F8043B6E
:1024700051F8043B40F8043B51F8043B40F8043B5E
:1024800051F8043B40F8043B51F8043B40F8043B4E
:1024900051F8043B40F8043B51F8043B40F8043B3E
:1024A00051F8043B40F8043B51F8043B40F8043B2E
:1024B00051F8043B40F8043B51F8043B40F8043B1E
:1024C00051F8043B40F8043B51F8043B40F8043B0E
:1024D000403ABDD2303211D351F8043B40F8043BAE
:1024E00051F8043B40F8043B51F8043B40F8043BEE
:1024F00051F8043B40F8043B103AEDD20C3205D3BE
:1025000051F8043B40F8043B043AF9D2043208D0B5
:10251000D2071CBF11F8013B00F8013B01D30B8827
:1025200003806046704700BF082A13D38B078DD005
:1025300010F003038AD0C3F10403D21ADB071CBFD7
:1025400011F8013B00F8013B80D331F8023B20F841
:10255000023B7BE7043AD9D3013A11F8013B00F87A
:10256000013BF9D20B7803704B7843708B78837002
:102570006046704781F0004102E000BF83F00043F5
:1025800030B54FEA41044FEA430594EA050F08BF0E
:1025900090EA020F1FBF54EA000C55EA020C7FEAD2
:1025A000645C7FEA655C00F0E2804FEA5454D4EB4F
:1025B0005555B8BF6D420CDD2C4480EA020281EA19
:1025C000030382EA000083EA010180EA020281EA51
:1025D0000303362D88BF30BD11F0004F4FEA0131A3
:1025E0004FF4801C4CEA113102D0404261EB4101B2
:1025F00013F0004F4FEA03334CEA133302D0524238
:1026000063EB430394EA050F00F0A780A4F10104F3
:10261000D5F1200E0DDB02FA0EFC22FA05F280182D
:1026200041F1000103FA0EF2801843FA05F3594113
:102630000EE0A5F120050EF1200E012A03FA0EFC92
:1026400028BF4CF0020C43FA05F3C01851EBE371BC
:1026500001F0004507D54FF0000EDCF1000C7EEBD9
:1026600000006EEB0101B1F5801F1BD3B1F5001F17
:102670000CD349085FEA30004FEA3C0C04F1010436
:102680004FEA445212F5800F80F09A80BCF1004F5F
:1026900008BF5FEA500C50F1000041EB045141EAE1
:1026A000050130BD5FEA4C0C404141EB0101013CAA
:1026B00028BFB1F5801FE9D291F0000F04BF014699
:1026C0000020B1FA81F308BF2033A3F10B03B3F16B
:1026D00020020CDA0C3208DD02F1140CC2F10C02FB
:1026E00001FA0CF021FA02F10CE002F11402D8BF59
:1026F000C2F1200C01FA02F120FA0CFCDCBF41EA25
:102700000C019040E41AA2BF01EB0451294330BDF3
:102710006FEA04041F3C1CDA0C340EDC04F11404D0
:10272000C4F1200220FA04F001FA02F340EA0300A7
:1027300021FA04F345EA030130BDC4F10C04C4F1ED
:10274000200220FA02F001FA04F340EA03002946CD
:1027500030BD21FA04F0294630BD94F0000F83F417
:10276000801306BF81F480110134013D4EE77FEAFA
:10277000645C18BF7FEA655C29D094EA050F08BF46
:1027800090EA020F05D054EA000C04BF1946104627
:1027900030BD91EA030F1EBF0021002030BD5FEA6B
:1027A000545C05D14000494128BF41F0004130BD93
:1027B00014F580043CBF01F5801130BD01F00045E7
:1027C00045F0FE4141F470014FF0000030BD7FEA5A
:1027D000645C1ABF194610467FEA655C1CBF0B4655
:1027E000024650EA013406BF52EA033591EA030F6C
:1027F00041F4002130BD00BF90F0000F04BF002164
:10280000704730B54FF4806404F132044FF0000596
:102810004FF0000150E700BF90F0000F04BF00210F
:10282000704730B54FF4806404F1320410F0004575
:1028300048BF40424FF000013EE700BF42004FEA70
:10284000E2014FEA31014FEA02701FBF12F07F43ED
:1028500093F07F4F81F06051704732F07F4208BFA4
:10286000704793F07F4F04BF41F40021704730B5AB
:102870004FF4607401F0004521F000411CE700BFF7
:1028800050EA010208BF704730B54FF000050AE07A
:1028900050EA010208BF704730B511F0004502D57B
:1028A000404261EB41014FF4806404F132045FEA7D
:1028B000915C3FF4D8AE4FF003025FEADC0C18BF26
:1028C00003325FEADC0C18BF033202EBDC02C2F118
:1028D000200300FA03FC20FA02F001FA03FE40EAAA
:1028E0000E0021FA02F11444BDE600BF70B54FF0AE
:1028F000FF0C4CF4E06C1CEA11541DBF1CEA13558C
:1029000094EA0C0F95EA0C0F00F0DEF82C4481EAF3
:10291000030621EA4C5123EA4C5350EA013518BF13
:1029200052EA033541F4801143F4801338D0A0FB00
:1029300002CE4FF00005E1FB02E506F00042E0FBAD
:1029400003E54FF00006E1FB03569CF0000F18BFB3
:102950004EF0010EA4F1FF04B6F5007F64F540745B
:1029600004D25FEA4E0E6D4146EB060642EAC621EE
:1029700041EA55514FEAC52040EA5E504FEACE2E5B
:10298000B4F1FD0C88BFBCF5E06F1ED8BEF1004F5E
:1029900008BF5FEA500E50F1000041EB045170BDDA
:1029A00006F0004646EA010140EA020081EA03011E
:1029B000B4EB5C04C2BFD4EB0C0541EA045170BD1A
:1029C00041F480114FF0000E013C00F3AB8014F194
:1029D000360FDEBF002001F0004170BDC4F10004DD
:1029E000203C35DA0C341BDC04F11404C4F120055E
:1029F00000FA05F320FA04F001FA05F240EA0200B9
:102A000001F0004221F0004110EBD37021FA04F6EE
:102A100042EB06015EEA430E08BF20EAD37070BDA8
:102A2000C4F10C04C4F1200500FA04F320FA05F007
:102A300001FA04F240EA020001F0004110EBD37009
:102A400041F100015EEA430E08BF20EAD37070BD79
:102A5000C4F1200500FA05F24EEA020E20FA04F352
:102A600001FA05F243EA020321FA04F001F0004101
:102A700021FA04F220EA020000EBD3705EEA430E72
:102A800008BF20EAD37070BD94F0000F0FD101F0A1
:102A90000046400041EB010111F4801F08BF013CDA
:102AA000F7D041EA060195F0000F18BF704703F018
:102AB0000046520043EB030313F4801F08BF013D9F
:102AC000F7D043EA0603704794EA0C0F0CEA13555B
:102AD00018BF95EA0C0F0CD050EA410618BF52EA15
:102AE0004306D1D181EA030101F000414FF000001B
:102AF00070BD50EA410606BF1046194652EA430629
:102B000019D094EA0C0F02D150EA013613D195EA9C
:102B10000C0F05D152EA03361CBF104619460AD1E4
:102B200081EA030101F0004141F0FE4141F47001EE
:102B30004FF0000070BD41F0FE4141F4780170BDDE
:102B400070B54FF0FF0C4CF4E06C1CEA11541DBF43
:102B50001CEA135594EA0C0F95EA0C0F00F0A7F845
:102B6000A4EB050481EA030E52EA03354FEA013172
:102B700000F088804FEA03334FF0805545EA131385
:102B800043EA12634FEA022245EA111545EA10654D
:102B90004FEA00260EF000419D4208BF964244F1E4
:102BA000FD0404F5407402D25B084FEA3202B61A03
:102BB00065EB03055B084FEA32024FF480104FF4D7
:102BC000002CB6EB020E75EB030E22BFB61A75464B
:102BD00040EA0C005B084FEA3202B6EB020E75EBDE
:102BE000030E22BFB61A754640EA5C005B084FEA46
:102BF0003202B6EB020E75EB030E22BFB61A754613
:102C000040EA9C005B084FEA3202B6EB020E75EB1D
:102C1000030E22BFB61A754640EADC0055EA060EDE
:102C200018D04FEA051545EA16754FEA06164FEA21
:102C3000C30343EA52734FEAC2025FEA1C1CC0D1CD
:102C400011F4801F0BD141EA00014FF000004FF05A
:102C5000004CB6E711F4801F04BF01430020B4F11B
:102C6000FD0C88BFBCF5E06F3FF6AFAEB5EB030CD3
:102C700004BFB6EB020C5FEA500C50F1000041EBD0
:102C8000045170BD0EF0004E4EEA113114EB5C049D
:102C9000C2BFD4EB0C0541EA045170BD41F4801170
:102CA0004FF0000E013C90E645EA060E8DE60CEA78
:102CB000135594EA0C0F08BF95EA0C0F3FF43BAF95
:102CC00094EA0C0F0AD150EA01347FF434AF95EA4C
:102CD0000C0F7FF425AF104619462CE795EA0C0F30
:102CE00006D152EA03353FF4FDAE1046194622E7FD
:102CF00050EA410618BF52EA43067FF4C5AE50EAD7
:102D000041047FF40DAF52EA43057FF4EBAE12E7C6
:102D10004FF0FF3C06E000BF4FF0010C02E000BFA7
:102D20004FF0010C4DF804CD4FEA410C7FEA6C5C8A
:102D30004FEA430C18BF7FEA6C5C1BD001B050EA2D
:102D4000410C0CBF52EA430C91EA030F02BF90EA18
:102D5000020F0020704710F1000F91EA030F58BFD7
:102D6000994208BF90422CBFD8176FEAE37040F039
:102D7000010070474FEA410C7FEA6C5C02D150EAD7
:102D8000013C07D14FEA430C7FEA6C5CD6D152EA92
:102D9000033CD3D05DF8040B704700BF8446104657
:102DA00062468C461946634600E000BF01B5FFF756
:102DB000B7FF002848BF10F1000F01BD4DF808ED26
:102DC000FFF7F4FF0CBF012000205DF808FB00BFF7
:102DD0004DF808EDFFF7EAFF34BF012000205DF851
:102DE00008FB00BF4DF808EDFFF7E0FF94BF01209E
:102DF00000205DF808FB00BF4DF808EDFFF7CEFF9F
:102E000094BF012000205DF808FB00BF4DF808EDDD
:102E1000FFF7C4FF34BF012000205DF808FB00BFAE
:102E20004FEA410C7FEA6C5C02D150EA013C0AD1C6
:102E30004FEA430C7FEA6C5C02D152EA033C02D1B8
:102E40004FF0000070474FF0010070474FEA410219
:102E500012F5001215D211D56FF47873B3EB6252EC
:102E600012D94FEAC12343F0004343EA505311F013
:102E7000004F23FA02F018BF404270474FF00000A5
:102E8000704750EA013005D111F0004008BF6FF0E3
:102E9000004070474FF00000704700BF4A0011D259
:102EA00012F5001211D20DD56FF47873B3EB6252A4
:102EB0000ED44FEAC12343F0004343EA505323FAB0
:102EC00002F070474FF00000704750EA013002D125
:102ED0004FF0FF3070474FF0000070474FEA41025B
:102EE000B2F1E04324BFB3F5001CDCF1FE5C0DD968
:102EF00001F0004C4FEAC0024CEA5070B2F1004FB2
:102F000040EB830008BF20F00100704711F0804FB4
:102F100021D113F13872BCBF01F00040704741F479
:102F200080114FEA5252C2F11802C2F1200C10FA7D
:102F30000CF320FA02F018BF40F001004FEAC12361
:102F40004FEAD32303FA0CFC40EA0C0023FA02F305
:102F50004FEA4303CCE77FEA625307D150EA0133DB
:102F60001EBF4FF0FE4040F44000704701F00040AB
:102F700040F0FE4040F40000704700BF80F0004089
:102F800002E000BF81F0004142001FBF5FEA410341
:102F900092EA030F7FEA226C7FEA236C6AD04FEA41
:102FA0001262D2EB1363C1BFD21841404840414086
:102FB000B8BF5B42192B88BF704710F0004F40F438
:102FC000000020F07F4018BF404211F0004F41F454
:102FD000000121F07F4118BF494292EA030F3FD020
:102FE000A2F1010241FA03FC10EB0C00C3F1200333
:102FF00001FA03F100F0004302D5494260EB4000C2
:10300000B0F5000F13D3B0F1807F06D340084FEA2C
:10301000310102F10102FE2A51D2B1F1004F40EB21
:10302000C25008BF20F0010040EA03007047490089
:1030300040EB0000013A28BFB0F5000FEDD2B0FA26
:1030400080FCACF1080CB2EB0C0200FA0CF0AABF49
:1030500000EBC25052421843BCBFD04018437047E7
:1030600092F0000F81F4000106BF80F400000132ED
:10307000013BB5E74FEA41037FEA226C18BF7FEAC4
:10308000236C21D092EA030F04D092F0000F08BF06
:103090000846704790EA010F1CBF0020704712F0ED
:1030A0007F4F04D1400028BF40F00040704712F12C
:1030B00000723CBF00F50000704700F0004343F091
:1030C000FE4040F4000070477FEA226216BF0846C7
:1030D0007FEA23630146420206BF5FEA412390EA8A
:1030E000010F40F4800070474FF0000304E000BF80
:1030F00010F0004348BF40425FEA000C08BF704731
:1031000043F0964301464FF000001CE050EA0102F4
:1031100008BF70474FF000030AE000BF50EA010209
:1031200008BF704711F0004302D5404261EB4101F6
:103130005FEA010C02BF84460146002043F0B6431B
:1031400008BFA3F18053A3F50003BCFA8CF2083A40
:10315000A3EBC25310DB01FA02FC634400FA02FC49
:10316000C2F12002BCF1004F20FA02F243EB020050
:1031700008BF20F00100704702F1200201FA02FCB2
:10318000C2F1200250EA4C0021FA02F243EB0200A5
:1031900008BF20EADC7070474FF0FF0C1CEAD052E9
:1031A0001EBF1CEAD15392EA0C0F93EA0C0F6FD0AA
:1031B0001A4480EA010C400218BF5FEA41211ED088
:1031C0004FF0006343EA501043EA5111A0FB013174
:1031D0000CF00040B1F5000F3EBF490041EAD37149
:1031E0005B0040EA010062F17F02FD2A1DD8B3F1C5
:1031F000004F40EBC25008BF20F00100704790F034
:10320000000F0CF0004C08BF49024CEA502040EA85
:1032100051207F3AC2BFD2F1FF0340EAC25070474B
:1032200040F400004FF00003013A5DDC12F1190F89
:10323000DCBF00F000407047C2F10002410021FAFB
:1032400002F1C2F1200200FA02FC5FEA310040F113
:10325000000053EA4C0308BF20EADC70704792F08C
:10326000000F00F0004C02BF400010F4000F013AC4
:10327000F9D040EA0C0093F0000F01F0004C02BFBF
:10328000490011F4000F013BF9D041EA0C018FE72E
:103290000CEAD15392EA0C0F18BF93EA0C0F0AD034
:1032A00030F0004C18BF31F0004CD8D180EA01005A
:1032B00000F00040704790F0000F17BF90F0004FF3
:1032C000084691F0000F91F0004F14D092EA0C0FD5
:1032D00001D142020FD193EA0C0F03D14B0218BF68
:1032E000084608D180EA010000F0004040F0FE40AE
:1032F00040F40000704740F0FE4040F4400070474A
:103300004FF0FF0C1CEAD0521EBF1CEAD15392EAC8
:103310000C0F93EA0C0F69D0A2EB030280EA010CB8
:1033200049024FEA402037D04FF0805343EA111151
:1033300043EA10130CF000408B4238BF5B0042F1AF
:103340007D024FF4000C8B4224BF5B1A40EA0C0054
:10335000B3EB510F24BFA3EB510340EA5C00B3EB86
:10336000910F24BFA3EB910340EA9C00B3EBD10F74
:1033700024BFA3EBD10340EADC001B0118BF5FEAC6
:103380001C1CE0D1FD2A3FF650AF8B4240EBC250EF
:1033900008BF20F0010070470CF0004C4CEA5020B0
:1033A0007F32C2BFD2F1FF0340EAC250704740F4FF
:1033B00000004FF00003013A37E792F0000F00F0F1
:1033C000004C02BF400010F4000F013AF9D040EA6F
:1033D0000C0093F0000F01F0004C02BF490011F403
:1033E000000F013BF9D041EA0C0195E70CEAD153FB
:1033F00092EA0C0F08D142027FF47DAF93EA0C0FE2
:103400007FF470AF084676E793EA0C0F04D14B02C5
:103410003FF44CAF08466EE730F0004C18BF31F077
:10342000004CCAD130F000427FF45CAF31F0004371
:103430007FF43CAF5FE700BF4FF0FF3C06E000BF0A
:103440004FF0010C02E000BF4FF0010C4DF804CD2D
:103450004FEA40024FEA41037FEA226C18BF7FEA3D
:10346000236C11D001B052EA530C18BF90EA010F3F
:1034700058BFB2EB030088BFC81738BF6FEAE170CE
:1034800018BF40F0010070477FEA226C02D15FEA6A
:10349000402C05D17FEA236CE4D15FEA412CE1D0D6
:1034A0005DF8040B704700BF844608466146FFE79D
:1034B0000FB5FFF7C9FF002848BF10F1000F0FBD7F
:1034C0004DF808EDFFF7F4FF0CBF012000205DF878
:1034D00008FB00BF4DF808EDFFF7EAFF34BF0120FD
:1034E00000205DF808FB00BF4DF808EDFFF7E0FF96
:1034F00094BF012000205DF808FB00BF4DF808EDE7
:10350000FFF7D2FF94BF012000205DF808FB00BF49
:103510004DF808EDFFF7C8FF34BF012000205DF82B
:1035200008FB00BF4FEA4002B2F1FE4F0FD34FF04D
:103530009E03B3EB12620DD94FEA002343F0004320
:1035400010F0004F23FA02F018BF404270474FF0CE
:103550000000704712F1610F01D1420205D110F055
:10356000004008BF6FF0004070474FF00000704708
:1035700053B94AB9002908BF00281CBF4FF0FF31DA
:103580004FF0FF3000F02AB8ADF1080C6DE904CE21
:1035900000F03DF8DDF804E0DDE9022304B07047F7
:1035A000D0B50C4B002206460F46FFF79FF9FFF7F8
:1035B00075FC0446FFF720F9074B0022FFF796F948
:1035C00002460B4630463946FEF7D8FFFFF766FC49
:1035D0002146D0BD0000F03D0000F041704700BF23
:1035E00038B50022002304460D46FFF7F1FB28B949
:1035F00020462946BDE83840FFF7D2BF204605F1F6
:103600000041FFF7CDFF404261EB410138BD2DE99C
:10361000F04786468C460846089E1546744619466D
:10362000002B40F0C2808542B2FA82F245D94AB1FD
:10363000C2F1200300FA02FC2EFA03F3954043EA9C
:103640000C0C94404FEA154EA8B2BCFBFEF8230CBC
:103650000EFB18CC08FB00F943EA0C43994528D926
:10366000EB1808F1FF3704D2994502D9A8F10207F7
:103670002B44A3EB0903A4B2B3FBFEFC0EFB1C33EB
:103680000CFB00F044EA0344A04214D92C190CF1BD
:10369000FF3304D2A04202D9ACF102032C44241A15
:1036A00043EA07401EB1D440002334607360BDE894
:1036B000F0874746DDE76346F1E792BB431B0121F4
:1036C0004FEA154EAFB2B3FBFEFC200C0EFB1C33D1
:1036D0000CFB07F840EA0343984562D9EB180CF15C
:1036E000FF3004D2984502D9ACF102002B44A3EB81
:1036F0000803A4B2B3FBFEFC0EFB1C330CFB07F764
:1037000044EA0344A7424ED92C190CF1FF3304D2EA
:10371000A74202D9ACF102032C44E41B43EA004067
:10372000C0E7C2F1200320FA03F1954090402EFA41
:1037300003F303434FEA154EAFB2B1FBFEFC0EFBA1
:103740001C10190C0CFB07F841EA0041884504FAEB
:1037500002F422D969180CF1FF3004D2884502D94D
:10376000ACF102002944A1EB08019BB2B1FBFEFCC5
:103770000EFB1C110CFB07F743EA01439F420ED9D5
:10378000EB180CF1FF3104D29F4202D9ACF10201D7
:103790002B44DB1B41EA004192E76046E3E76146C8
:1037A000F7E76046A3E76346B7E7834206D916B951
:1037B000002108467BE7C6E900E0F9E7B3FA83F7A2
:1037C0008FB9834201D3724508D8BEEB020460EB87
:1037D000030301209C461EB9002168E73846FAE73A
:1037E000C6E9004CF8E7C7F1200CBB4022FA0CF404
:1037F0001C432EFA0CF120FA0CF3B84001434FEAB7
:1038000014490EFA07F5B3FBF9F81FFA84FE09FB19
:1038100018300B0C08FB0EFA43EA00439A4502FAF3
:1038200007F240D9E31808F1FF3004D29A4502D9D3
:10383000A8F102002344A3EB0A0389B2B3FBF9F811
:1038400009FB183308FB0EFE41EA03418E452CD9D3
:10385000611808F1FF3304D28E4502D9A8F10203A2
:10386000214443EA0040A0FB0298A1EB0E01414530
:10387000CE46434602D306D14D4504D2B9EB020EE3
:1038800068EB04030138002EA6D0B5EB0E0261EB05
:10389000030101FA0CFC22FA07F34CEA0303F94096
:1038A000C6E9003198E74046C5E74346D9E700003E
:1038B00038B5044620F000400D46FEF7BFFF10A3C8
:1038C000D3E90023FFF784FA00B1114C114B53F8F0
:1038D0002500FFF70DFC104B53F82510FFF75CFC9B
:1038E00024F00041FFF758FCFEF7A8FF02460B4604
:1038F00005A1D1E90001FFF723F9FFF7A7FA38BDC9
:103900007B14AE47E17A843F000000002A75B54180
:103910000AD7233C248928200C8928200000000095
:103920002DE9F74F824C054600274FF49079A4F11A
:10393000D808A5425ED17F4B1968022940F08E80DD
:1039400055F880BC55F8786C2BF000413046FFF7F5
:10395000C1FD48B158460FF006FFFFF7C9FB3146DD
:10396000FFF71AFC45F8800C54F87CBC4FF49076B5
:103970002BF0004006FB0786FEF760FF68A3D3E943
:103980000023FFF725FA824600283BD0D6F88C307A
:10399000C6F890305846FEF751FF54F8806C8246C6
:1039A0008B463046FEF74AFF02460B46CDE9002320
:1039B0005DA3D3E90023FEF7E1FD02460B46504626
:1039C0005946FFF705FA90B35046594654A3D3E938
:1039D0000023FEF7D5FDFFF781FA064626F00040EA
:1039E000394644F87C6CFFF763FF4FF4907303FB98
:1039F00007839863013704F59074062F99D103B0BB
:103A0000BDE8F08FD6F88C20584600920FF0ABFE40
:103A100054F8441C009A484302EB4002C6F8902038
:103A2000D6F89020002AB5DAC6F890A0B2E73EA3F7
:103A3000D3E90023DDE90001FEF7A2FD02460B46B3
:103A400050465946FFF7E2F90028C7D0504659467C
:103A500033A3D3E90023FEF791FDBCE715F8AB3C97
:103A6000002B57D009FB078655F8442CD6F8880060
:103A7000904223DC15F8600C00BB01291ED1D6F85A
:103A800088B0B06B0092FFF733FB82465846FFF7D1
:103A90002FFB009A83461046FFF72AFB0146584643
:103AA000FFF72EFC01465046FFF72AFCFFF73AFDD0
:103AB00055F8982C9042A8BF1046F0634FF49073CD
:103AC00054F8A82C03FB0783D96B914204DA1A48F7
:103AD000DA6301F0EDFF8DE7D96B9A6B91420ADD55
:103AE000996B54F8880CDA6B9E6B424392FBF6F2AA
:103AF0000A449A637EE7D96B9A6B9142BFF67AAF1C
:103B0000996B54F8880C9A6BDE6B424392FBF6F289
:103B10008A1AEEE755F8982C09FB0783E9E700BFFE
:103B20007B14AE47E17A843F9A9999999999A93F74
:103B30002896282008892820E289016000000000DA
:103B40002DE9F04F1C46B04B9FB000258346186806
:103B5000079288461A950890FEF7B2FB002181462D
:103B60000020CDE9040142461992174612F8013BA4
:103B70002D2B5FD801A151F823F000BF533D006009
:103B8000353C0060353C0060353C0060353C0060F1
:103B9000353C0060353C0060353C0060353C0060E1
:103BA000693B0060693B0060693B0060693B006005
:103BB000693B0060353C0060353C0060353C00608E
:103BC000353C0060353C0060353C0060353C0060B1
:103BD000353C0060353C0060353C0060353C0060A1
:103BE000353C0060353C0060353C0060353C006091
:103BF000353C0060353C0060353C0060693B00604E
:103C0000353C0060353C0060353C0060353C006070
:103C1000353C0060353C0060353C0060353C006060
:103C2000353C0060353C006085430060353C0060F9
:103C30009943006000220992302B00F09580002209
:103C40000A922F2B1C4640F2F5844FF0000A3846AA
:103C50005646554613E00130082D1990C8BF0AEBAF
:103C60008A0A0478C6BF03EB4A03A3F1300AA2F123
:103C700030062F2C05F10105234640F3B58006EBF5
:103C80008602392C03EB4202E5DD08994A460DF025
:103C900079FE0346002878D119990A4649441991BA
:103CA00012F80940002D40F07185302C40F0558508
:103CB0000A461346013219921478302CF9D0C1F11A
:103CC00001010B44A4F13102082A36D8199F03F1EF
:103CD00001090023A4F1300E01253C46089306EBB0
:103CE00086060EEB46060023621C19926478A4F146
:103CF0003001092900F22B83199C01338E460029DB
:103D0000F2D0012B08BF05F1010C00F0D88603EBBF
:103D1000050C0CF1FF3003E05600A84200F0CF86FE
:103D2000082D06EB860205F10105F5D9102DDCBF43
:103D30000AEB8A0A4FEA4A0AEFE7652C40F02F8324
:103D40000022089291464FF0010C0A9A1A4340F063
:103D50001783079B002600270BB1C3F8008030466D
:103D600039461FB0BDE8F08F7B7803F0DF03582B96
:103D700000F01A84013719973B78302BFAD0002BCA
:103D800000F0C68201220A925BE70023089599465B
:103D90009C46652C3ED0452C3CD000220C92002D38
:103DA00040F086800A9A1A4340F0B282BCF1000FBC
:103DB000CFD1692C00F0828400F3C583492C00F038
:103DC0007D844E2CC5D1114919A80CF069FF00283B
:103DD000BFD0199B1B78282B00F03D850C480DF0B7
:103DE000CBFD06460F4695E208994A460DF0CAFDFE
:103DF00003460028C9D1199A089502EB09011991C7
:103E000012F80940994672E7CC8401605C82016037
:103E100054850160002D98D0DDF8648008F101021E
:103E2000199298F801402B2C00F094822D2C00F070
:103E3000818200220B92A4F13000092800F28282D4
:103E4000302C199A0AD1013219921478302CFAD0F8
:103E5000A4F131010829A0D8A4F13000511C199116
:103E600054782F2C40F3F7838E460C9708E00131ED
:103E700019919EF801402F2CA7F1300006DD8E46E7
:103E800000EB8007392C04EB4707F0DD891A08297D
:103E90000C9F40F3E08344F61F620C920B9A002AB9
:103EA0003FF47DAF0C9A52420C92002D3FF47AAF52
:103EB000089A1346002A08BF2B4630460893FEF79F
:103EC0009BFC0B460246CDE904230C9B102DA3EB73
:103ED00009032C46A8BF1024092D0B9316DD4E4B69
:103EE00003EBC40353E91223FEF700FDCDE90401FF
:103EF0005046FEF781FC02460B46DDE90401FEF761
:103F00003FFB0F2DCDE9040100F3AB810B9B002B90
:103F100000F033820B9B40F35D82162B40F3A283AB
:103F20000B9AC5F12503934280F21A842C1B14448A
:103F300014F00F000AD0384901EBC001DDE9042379
:103F4000D1E90001FEF7D2FCCDE9040134F00F0302
:103F500044D0B3F59A7F00F36383102B2F4A4FEAC6
:103F6000231440F32285DDE9040100230A979046DB
:103F70009A46174614F0010F0AF1010A4FEA640449
:103F800004D0D8E90023FEF7B1FC0123012C08F18D
:103F90000808EFD13A460A9F0BB1CDE90401059B11
:103FA000A3F1547302EBCA0A0593DDE90423DAE9AD
:103FB0000001FEF79BFC1A4BCDE904010B400A46B9
:103FC00018498B4200F22C83A1F580118B4240F2FC
:103FD0003D8415494FF0FF33CDE9043100230A93A6
:103FE000089A00962B46394658460CF0F3FF159078
:103FF000002800F015830B9A0C9B002AA9EB030301
:10400000A8BF002310934FF0000A22EAE273CDF814
:1040100020A01493E3E000BFF8680160D06801605D
:104020000000F07F0000A07CFFFFEF7FD21A1F2A64
:10403000A4EB020400F34A82012393401E460025AC
:104040000A9BA0444C44A14598444B46A8BF234634
:104050004345A8BF4346002B04DDE41AA8EB030840
:10406000A9EB0309109B002B00F3D681002C00F371
:10407000EC810B9B002B00F31F82B8F1000F00F3C3
:104080000F82B9F1000F08DD51464A4658460DF03F
:1040900089F98246002800F00C821A993A4658465F
:1040A0000DF018FA0890002800F00382089A002307
:1040B000D1681191D36051460DF0ECF90028C0F29F
:1040C000FB83DDF8149000F06E83089851460DF0E4
:1040D00097FB00224FF0804304460D46FEF782FE18
:1040E000002800F08981119B002B40F0FB81049B8C
:1040F000002B40F08682C9F31303002B40F0278287
:10410000AD4B002220462946FEF762FE002840F013
:104110004183AA4B204629460022FEF7E7FB0346CF
:104120000C46CDE9123401F100430E900F93DFF8F5
:104130009082A44B09EA08089845DDE90E4500F095
:10414000D8810A9B1BB3B8F1D46F20D898A3D3E9C8
:104150000023DDE91201FEF745FEA0B1DDE9120101
:10416000FEF79CFE012838BF0120FEF745FB119B9E
:10417000CDE91201002B40F0B58201F10043169009
:104180001793DDE9164505F1D663A3EB0805DDE9D4
:104190000C010DF051FA02460B4620462946FEF767
:1041A000A5FBDDE90C23FEF7EBF9CDE904010C4694
:1041B0000A9B23B9824B2340984500F0D1811A997C
:1041C00058460CF0ADFE394658460CF0A9FE514653
:1041D00058460CF0A5FE089958460CF0A1FE159C17
:1041E000584661680CF076FE0746002800F06181B1
:1041F0002269023204F10C0192000C30FEF720F922
:104200001CAB01931BAB0093DDE904345846CDE9A8
:104210000C341A4623460DF095FA1A90002800F047
:104220001D81012158460CF07FFF8246002800F0D6
:1042300040811B9B002BC0F22D81109ADDF850802D
:1042400003EB02090A9A1C9C9B1A23445E4A013B19
:104250009342C4F13604FFF6E9AE012300251E4661
:10426000EEE60B9B2C1B1C44002C3FF761AE3FF489
:10427000B5AE644214F00F020AD0544B03EBC203F4
:10428000DDE90401D3E90023FEF75AFCCDE904017E
:1042900024113FF4A3AE1F2C37DC14F01003DDE92A
:1042A000040118BF6A23DFF828810A930023E2077C
:1042B00004D5D8E90023FEF719FB0123641008F1A7
:1042C0000808F4D10BB1CDE904010A9BA3B1DDE9E3
:1042D0000401C1F30A52C2F16B03002B0ADD1F2B4C
:1042E00040F380830020342B049040F383834FF00D
:1042F0005C7305936A230A93DDE90401002200231D
:10430000FEF75CFD00283FF46BAE2223CBF80030B3
:1043100000260027079A0AB1199B1360099B002BFE
:104320003FF41DAD07F100431F46304639461FB02C
:10433000BDE8F08F01220B9208F10202199298F861
:10434000024078E50022CDF864800C9227E54FF01A
:10435000010C1EE500220B92EEE71C9A04921D9AB6
:1043600003F2334322F4801242EA035305932007F9
:1043700042BF059B43F000430593DDE90467C9E7AD
:10438000002549E5002309937A1C19927B78002BBC
:104390003FF4DFAC17464FE401230993F4E7452CC3
:1043A0003FF4CEAC4FF0010CFCE400BFAFF3008053
:1043B0000000C0FFFFFFDF410000F03F0000E03FD2
:1043C0000000F07F0000E07F02FCFFFFF868016062
:1043D000A86801601633FFF644AF0C9BA9EB0302FB
:1043E000AD4B03EBC203DDE90401D3E90023FEF783
:1043F000A7FB06460F468DE7A84B2046294600221C
:10440000FEF774FA119BCDE91201002B65D101F181
:1044100000430E900F938AE651461A4658460CF018
:1044200067FF8246002844D001461A9A58460CF08D
:10443000A9FE00283DD011901A9958460CF070FD45
:10444000119B1A93002C7FF714AE1A9922465846F6
:104450000CF0A8FF1A9000287FF40BAEB946054671
:1044600022238F4FCBF800300026294658460CF007
:1044700057FD494658460CF053FD514658460CF03E
:104480004FFD159958460CF04BFD089958460CF015
:1044900047FD3FE7149ADDF84090A2EB0308D1E610
:1044A0003946424658460CF07DFF074600287FF407
:1044B000E8ADB9461A9DD3E73946149A58460CF030
:1044C00017FF074600287FF4D8ADF2E7754AD31AE4
:1044D000012202FA03F51646B2E5DDE91234CDE910
:1044E0000E3424E6704C0023CDE90E34CDE91234AD
:1044F0001DE6A9F154730593DDE9044520462946DC
:104500000DF09AF8DDE90E23FEF7F0F92B4622466E
:10451000FEF736F8DFF88891644B01EA09099945FE
:10452000CDE9040140F28280DDE90C0103F154730E
:10453000994202D106460136BBD05D4A4FF0FF33A7
:10454000CDE904323BE66E2C3FF43DAC01E4594C1E
:104550000023CDE90E34544C0023CDE91234E6E5B6
:10456000DDE9125628463146FFF73AF8FEF790F992
:104570000B46024631462846FEF700F8119D049B83
:10458000C4F313041D432C438046894627D13CA322
:10459000D3E90023FEF71CFC00283FF410AEB94617
:1045A0001A9DDDE9046760E7099B01931AAB029449
:1045B0000093414A1BAB19A958460CF081F810F042
:1045C000070504463FF4A4AE062D40F09080079BFB
:1045D0000BB101371F6000260027FFF7C0BB2AA3DD
:1045E000D3E90023FEF7F4FB0028D8D128A3D3E9B0
:1045F000002340464946FEF709FC00283FF4DFADA2
:10460000CDE7049B012BA2D1B9F1000F9FD1B94690
:104610001A9C22232546CBF800300026002724E7E9
:104620002223CBF800301E4F002673E601F15474AC
:104630000594BDE508994A4638460DF0A3F90028CF
:1046400000F0818000239C4608939A461E469946B6
:104650001D46FFF7A0BB44F61F629042A8BF10465C
:104660000C901BE40B980C4901EBC001DDE904231D
:10467000D1E90001FEF73AF906460F464AE600BFC7
:104680009535A094FFFFCF3F9535A094FFFFDF3F06
:1046900035E5AF350000E03FF86801600000E03F1D
:1046A0000000F07FE2FBFFFF0000F03FFFFF9F7C78
:1046B000FFFFEF7F0000F0BF74820160994919A8E5
:1046C0000CF0EEFA00283FF444AB199B9649013BED
:1046D00019A819930CF0E4FA0028A4D1199B01330E
:1046E0001993A0E7DDE91234CDE9163449E51A9AA9
:1046F0003AB135211CA80DF0ADF81A9958460CF0C6
:104700000FFC013D1B9B042D3FF631AE01A252F878
:1047100025F000BF5B4300603D4700603747006005
:10472000294700605B4300604FF0FF336FF00045A6
:10473000CDE904351BE67D4B059318E61C9B0493DD
:104740001D9B059313E619990B464944199113F8DB
:10475000094006468246FFF7A8BA0023FFF7B2BA1F
:10476000734CC5F10F0504EBC501DDE90423D1E964
:104770000001FEF7BBF80B9B5D1B04EBC504D4E9FD
:104780000023FEF7B3F806460F46C3E508958146B9
:10479000FFF7ADBA674C0023CDE90E34664C002319
:1047A000CDE91234C3E4119864494B46B446B94686
:1047B000AE46DDE90C67C3F3130200285ED08A42DF
:1047C00000F0F780002D38D1049A1CEA020F37D090
:1047D0003046394604930CF02FFF0A9B04460D46E1
:1047E000002B00F02281049BC3F30A53C3F16B0337
:1047F000002B40F35A811C0504F17F53002203F57E
:104800004013FEF773F802460B4630463946FDF773
:10481000B7FE1A9C06460F46494B304639460022E1
:10482000FEF764F80B46034308BF222325460646DD
:104830000F4608BFCBF8003017E61EEA030FC7D1BA
:104840001A9C0A9B2546002BE6D10EE602F1547312
:104850000593FFF7C3BB3B4919A81CAA0CF03AFA11
:1048600005287FF4BBAA1D9B43F0FF4343F4E003FC
:1048700005931C9B0493DDE904674BE5002A63D193
:10488000DDE904452246002C40F0A4800A9A002A63
:1048900040F0DE8025F00044240D2405A4F58014AA
:1048A0006FEA14536FEA035305934FF0FF330493F9
:1048B000DDE904671A9DD8E5DDE90401119B034396
:1048C000B946DDE90C67BBD1C1F31303002BB7D1A7
:1048D00021F00044240D2405B4F1D66FA046AFD9D1
:1048E000089A536913B91369012BA9DD08990122AC
:1048F00058460CF057FD514608900CF0CBFD0028AF
:104900009EDD0A9B002BC9D0A8F580136FEA1353D4
:104910006FEA035305934FF0FF330493DDE9046717
:104920001A9C79E750820160548201600000F07F98
:10493000F86801600000E0BF0000E03FFFFF0F00EB
:104940000000503960820160002D46D1049A1CEAB3
:10495000020F3FF475AF3046394604930CF06CFEFD
:104960000A9B002B00F08880049BC3F30A53C3F119
:104970006B03002B40F3B4801C0504F17F5300222D
:1049800003F54013FDF7B2FF02460B4630463946A9
:10499000FDF7F4FD0022002306460F46FEF70EFA4F
:1049A00000287FF435AE1A9C36E74FF0000AFFF777
:1049B000F6BADDE904010A9A04461ABB024601323E
:1049C0006CD0BEF1000F7FF438AF14EA0C0F3FF447
:1049D00037AFFDE6BEF1000FB9D01EEA030F3FF47A
:1049E0002FAFB8E74FF0FF3202FA03F3049A1A40F0
:1049F00004927FE4C2F14B024FF0FF3393400B402F
:104A0000059377E4384A1A40B2F1D46F17D9611C84
:104A1000D7D136498B423FF44DAD02F58013059353
:104A200000230493DDE904670AE7304639462B4644
:104A30002246FDF7A5FD1A9D06460F4615E5100D09
:104A4000C0F16B004FF0FF3181408C42B9D1E4E7F7
:104A5000DFF8948003EA0808B8F1D66F3FF654AF48
:104A60001A9DB8F15C7F2C463FF6D6AE2223CBF8D8
:104A7000003000260027F8E402460B46304639464F
:104A8000FDF77CFD1A9C0022002306460F462546B2
:104A9000FEF794F900283FF4E8ACBAE5134A9342D4
:104AA0003FF408AD01321A40B7E730463946224696
:104AB0002B46FDF765FD1A9C06460F46ACE6082D11
:104AC000994402DC6546FFF70AB9BCF1100FDCBF60
:104AD0000AEB8A0A01EB4A0A65460023FFF704B98C
:104AE00002460B4652E700BF0000F07FFFFFEF7F5A
:104AF0002DE9F04F016C9FB016461F46CDE90467C3
:104B00002B9D039049B1426C4A60012393400446B7
:104B10008B600CF005FA00232364B7F10009B4BFE1
:104B2000012300232B60764BBCBF29F00049CDF850
:104B3000149033EA090300F0AA80DDE9043400226E
:104B4000184621460023CDE90801FEF737F98046D3
:104B500068B12A9A012313602C9B13B12C9A694BDC
:104B60001360694B0A930A981FB0BDE8F08F1CAB25
:104B700001931DAB00930398DDE908230CF0E2FDDF
:104B80005FEA1955824640F09880DDE91C8545446E
:104B900005F23243202B40F38383C3F1400309FA2B
:104BA00003F905F2124326FA03F349EA0300FDF77D
:104BB00023FE0123013DA1F1F8711193534B002213
:104BC000FDF7DCFC48A3D3E90023FDF78FFE48A3E3
:104BD000D3E90023FDF7D4FC064628460F46FDF72F
:104BE0001BFE45A3D3E90023FDF780FE02460B46DA
:104BF00030463946FDF7C4FC06460F46FEF726F957
:104C000000228346002330463946FEF7E1F80028AB
:104C100040F01A83A8EB0508BBF1160F08F1FF342A
:104C200000F28B813A4D05EBCB05D5E90023DDE998
:104C30000801FEF7CDF8002870D00023002C0BF1FE
:104C4000FF3B1093C0F27E8100230B93BBF1000F5A
:104C50006ADA0B9BA3EB0B030B93CBF10003CDE9BB
:104C60000EB3289B092B4FF0000B65D8052B40F3A2
:104C70001C83043B28930025289B023B032B00F256
:104C80002386DFE813F060045D04540438042A9A94
:104C9000C9F3130942F20F7359EA060913601CD1D4
:104CA0002C9B002B00F02B861A4B0A9308332C9A6E
:104CB0000A9813601FB0BDE8F08FDDE90812C2F357
:104CC0001303084643F07F51CDF84480A5F2FF3529
:104CD000DDF8708041F4401170E72C9B002B40F010
:104CE000E7830D4B0A933EE761436F63A787D23F8B
:104CF000B3C8608B288AC63FFB799F501344D33FCB
:104D00000000F07FC9820160C88201600000F83FA6
:104D1000F8680160EC820160F8820160B8F1000F70
:104D200040F3608410900B9000230F93289BCDF8E4
:104D300038B0092B5C4499D90023CDE928330125EB
:104D40004FF0FF330C950693039B00215964069B9B
:104D5000189303980CF0BEF80A90002800F0BD8567
:104D6000039B0A9A1A64069B0E2B00F21581002DF4
:104D700000F012810E9A002A40F33B84B24D02F0FB
:104D80000F0305EBC303D3E9008913461511DA05B8
:104D900040F1FA83AD4BDDE90801D3E90823FDF7C3
:104DA000CFFECDE9120105F00F0503277DB1A74E17
:104DB000EB0708D540464946D6E90023FDF796FDA6
:104DC0000137804689466D1006F10806F0D142464B
:104DD0004B46DDE91201FDF7B3FE80468946109B84
:104DE00043B19B4B002240464946FDF7F1FF0028A6
:104DF00040F0F1843846FDF70FFD42464B46FDF783
:104E000075FD944B0022FDF7BBFB069B0646A1F106
:104E10005077002B00F0A9800E9B1993069B1293EC
:104E20000A9B894D49464046CDE914675E1CFEF752
:104E30000DF8129905EBC10353E902120746CDE9BB
:104E40001612FDF7E9FC02460B4640464946FDF7BF
:104E500095FB89460C993037DDE916238046FFB271
:104E6000002900F053847C490020FDF769FEDDE94C
:104E70001423FDF783FB0A9D02460B46CDE914235C
:104E80002F7042464B46FDF7C1FF002840F0978443
:104E9000CDE91AB4CDF858A0129DDDE914AB002776
:104EA0002AE00137AF4280F2DE846C4B504659460F
:104EB0000022FDF71BFD694B002282468B464046CF
:104EC0004946FDF713FD89468046FDF7BFFF0446BE
:104ED000FDF7A2FC02460B4640464946FDF74EFB55
:104EE000303406F8014B52465B4680468946FDF752
:104EF0006FFF002840F0B48442464B4654490020DE
:104F0000FDF73CFB52465B46FDF762FF0028C8D028
:104F1000199BDDF858A00A9A374603F1010802E010
:104F2000974200F07C843E4617F8013D392BF7D0BC
:104F30000133DBB23B70454675E10123002C109331
:104F4000BFF682AEC8F101030B9300247EE638461B
:104F5000FDF762FC42464B46FDF7C8FC3D4B002284
:104F6000FDF70EFB0646A1F150773D4B4046494602
:104F70000022FDF703FB32463B4680468946FDF79B
:104F800045FF002840F05A8440464946324607F122
:104F90000043FDF71DFF28BB1D9B002BC0F2928034
:104FA0000E9A0E2A00F38E80274D0E9B05EBC3054B
:104FB000D5E90034CDE90434299B002B19DA069B8E
:104FC000002B16DC0ED1264B0022DDE90401FDF793
:104FD0008DFC02460B46DDE90801FDF703FF0028C2
:104FE00000F02C844FF000090A9E4F46299BDD43B8
:104FF00025E2DDE90445DDE9088922462B464046E5
:105000004946FDF79DFDFDF721FF0646FDF704FC2F
:1050100022462B46FDF76AFC0A9F0B46024649468C
:105020004046FDF7ABFA06F1300307F8013B069B5B
:10503000012B00F012830125CDF818A09946DDE977
:1050400004ABA8462CE000BFF8680160D06801609E
:105050000000F03F00001C400000E03F0000244042
:105060000000144052465B4620462946FDF768FD85
:10507000FDF7ECFE0646FDF7CFFB52465B46FDF71B
:1050800035FC08F101080B46024629462046FDF78B
:1050900075FA06F13003C84507F8013B00F0DB82E2
:1050A000B94B0022FDF722FC0022002304460D46E6
:1050B000FDF784FE0028D5D00E9DDDF818A001353F
:1050C0003E46B0E00C9A002A40F0D28000230F9DAB
:1050D0000B9E0C931F4656B1002C08DDA6420B9A7E
:1050E0003346A8BF2346D21A0B92F61AE41A0F9B36
:1050F00053B10C9B13B1002D40F0E88251460F9A3A
:1051000003980CF0F5F88246039801210CF00CF896
:105110008146BBF1000F40F0B681289B012B40F384
:10512000CC810120204410F01F0000F09A80C0F1D3
:105130002003042B40F3DA810B9BC0F11C000344D5
:105140000B93064404440B9B002B05DD514603984A
:105150001A460CF027F98246002C05DD49460398D3
:1051600022460CF01FF98146109B002B40F0708105
:10517000069B002B40F348810C9B002B40F0A48041
:105180000E9D0135DDF82880069CDDF80CB0012667
:1051900007E0514600230A2258460BF0CBFE0136A9
:1051A0008246494650460BF057F8A64200F13003BC
:1051B00008F8013BEDDB069A002AC8BF16460A9A9A
:1051C000D8BF012602EB060B0024514601220398AA
:1051D00004930CF0E7F8494682460CF05BF900288E
:1051E00040F3E3810A9A02E05A4500F0E9815E4605
:1051F0000BF1FF3B16F8013C392BF5D001338BF84E
:105200000030DDF80C80494640460BF089FE57B16E
:105210002CB1BC4203D0214640460BF081FE0398DE
:1052200039460BF07DFE039851460BF079FE0023C2
:1052300033702A9B1D602C9B002B3FF494AC0A9882
:105240001E601FB0BDE8F08F5846FDF7E5FA324604
:105250003B46FDF7B3FD00287FF4DCAC0BF1FF3BD0
:10526000D8E41C230B9A1A440B921E441C446AE790
:10527000289A012A40F3A981069A0F9B551EAB423A
:10528000C0F26B81002AA3EB050580F2DD820B9B47
:10529000069A9E1A039801210BF046FF07461AE76B
:1052A000C3F1200306FA03F081E40125E4E4394662
:1052B000002303980A220BF03DFE189B002B0746A3
:1052C00040F3EF820E950693002E00F33F81BBF171
:1052D000000F40F0DF81B8460A9E069C731E1C44F6
:1052E000049B0C9403F00103039C0F934946504622
:1052F0000AF0B2FF3946834650460CF0CBF84246DE
:105300004946054620460CF0E5F8C26801460BF117
:105310003003002A3AD1089050460B930CF0BAF8AB
:105320000899069020460BF0FBFD069A0B9B002A7D
:105330005AD1289A1AB90F9A002A00F09A82002DA1
:1053400045DB0C9AB346B2420BF8013B00F0B98141
:10535000514600230A2220460BF0ECFD47458246C9
:1053600039464FF000034FF00A02204636D00BF0CA
:10537000E1FD4146074600230A2220460BF0DAFDF4
:105380005E468046B2E700BF0000244003980693C3
:105390000BF0C6FD002D069B06DB049A289902F04F
:1053A00001020D432A432AD1514601220398049356
:1053B0000BF0F8FF494682460CF06CF80028049B7D
:1053C00040F3E880392B00F02F820BF131030E9D62
:1053D00006F8013B3C460135474612E70BF0AAFDB3
:1053E0005E460746804681E7002DC0F27D822899FF
:1053F0000D430F990D4300F07782002AA1DD392B70
:1054000000F012820133E2E7289B022B7FF7B4AE53
:10541000069B002B40F01D814946052203980BF0A6
:1054200089FD0146814650460CF034F8002840F3CF
:1054300010810A9E0E9D312306F8013B0135039829
:10544000494601350BF06CFD002F7FF4E8AEEAE62B
:10545000494650460CF01EF80028BFF689AE51466A
:10546000002303980A220BF065FD0E9B5D1E0C9B2A
:105470008246002B7FF41BAF189B002B40F3FF816B
:105480000E9D06937EE601465A4603980BF030FFC8
:10549000289B012B81466CDD4FF0000BD9F81030B2
:1054A00009EB830318690BF0EDFDC0F1200039E62C
:1054B000924B0A930333FFF7FABB049B002B7FF454
:1054C00030AEDDE90412C2F31303002B7FF429AEE2
:1054D0008B4B134023B10B9B01330B9301340123FE
:1054E000BBF1000F40F0AE819B461AE63FF42BAEB5
:1054F000C0F13C03B6E601230C93299B0E9A13449A
:1055000018930133012B1E460693B8BF0126172EB0
:1055100040F3D581012204235B0003F11400B04263
:10552000114602F10102F7D9039B596411E40123EA
:105530000C93299B002B33DD189306931E46E6E758
:1055400000230C93D9E700230C93F2E73946039824
:1055500032460BF027FF0746B9E60F9B069A0F95D8
:10556000EB1A9B440B9B1E46134414440B930025DB
:1055700090E6049B002B8FD1DDE90401C1F31303F6
:105580000A46002B88D1A3E7DDE908230227CDE9ED
:1055900012230BE47FF41BAFDA077FF518AF11E796
:1055A000012329930693FFF7CFBB03D1049BDB07AD
:1055B0003FF518AE5E461BF8013D302BFAD020E6D1
:1055C0000A9A3123013513701BE6119A002A00F064
:1055D000F98003F233430B9A0F9D16461A441C447C
:1055E0000B9257E6C8F1010304460B931090FFF7A6
:1055F0009BBB00F0EB800E9B424D5E4206F00F031A
:1056000005EBC303D3E90023DDE90801FDF76EF9DB
:105610003511CDE9120100F04D813B4E00230227E8
:1056200080468946E80709D5D6E900234046494621
:10563000FDF75CF901378046894601236D1006F1BC
:105640000806EFD1002B7FF4CAABDDE91289FFF722
:10565000C6BB0A9ECAE4DDF818A00E9D02460B46A2
:10566000FCF78EFF02460B46CDE906230135DDE946
:105670000423A846FDF7CAFB40B9DDE90423DDE9B0
:105680000601FDF79BFB18B1F10701D50A9A4AE420
:105690003E46C8E5796803980BF01CFC05460028D7
:1056A00000F026813B6902339A0007F10C010C30AF
:1056B000FCF7C6FE0398294601220BF073FE8046D4
:1056C0000AE60E9D3C46013547467EE5DDF80C8036
:1056D00039462A4640460BF00BFE52460146074625
:1056E00040460BF04FFD5146824640460BF018FCF9
:1056F0000F9B5B1B0F933FF407ADFFE4F882016043
:105700000000F07FF8680160D0680160DDE91401F5
:10571000FDF7ECF80A9B1F70129B012BCDE90C01E1
:1057200000F0C680129F0A9BCDF844B01F447C4B0A
:10573000002240464946FDF7D9F889468046FDF7E4
:1057400085FB8346FDF768F80BF1300B02460B46EC
:1057500040464946FCF712FF06F801BBB7428046B7
:105760008946E4D1DDF844B06E4B0022DDE90C013E
:10577000FCF706FF02460B4640464946FDF746FB4E
:10578000002867D1DDE90C2366490020FCF7F6FE0E
:1057900002460B4640464946FDF71AFB48B91D9B99
:1057A000002BFFF693AC0E9B0E2B3FF78FACFFF751
:1057B000FCBB3E46013F16F8013C302BF9D0199D49
:1057C000013530E51C9BC3F1360304E7DDE90889A8
:1057D0000227FFF704BB069B002B3FF4B8AB189BD6
:1057E000002B7FF7D9AB0E9A1293013A4C4B1992CA
:1057F000404600224946FDF779F880468946781CE4
:10580000FDF70AF842464B46FDF770F8464B00227A
:10581000FCF7B6FE0646A1F15077FFF701BB08F191
:1058200001083123FFF786BB0E9D0A9AB346392340
:105830003C460BF8013B01354746D8E44FF00009E0
:105840004F46F6E59B4629E60B9B1E46134414443F
:105850000B931FE5199B0A9A03F10108FFF763BB3D
:10586000DDF858A0ABE7DDE91AB4DDF858A0FFF782
:1058700093BB392BD8D0002D3FF7A7ADA7E5289BC8
:10588000022B0ADC189B069349460E9D0AF0E4FCA5
:105890000A9A00F1300313708DE4189B06930E955D
:1058A000B6E5289B022BF8DC189B0E9506930BE5BA
:1058B000374659E7DDE912890227FFF790BA039BC3
:1058C00000215964FFF745BA039B00255D64294612
:1058D00018460BF0FFFA0A90A8B9144B144800229E
:1058E0004FF4D5710CF022F9002A7FF770AD5BE51B
:1058F0000E4B0F482A4640F2EA210CF017F90D4BE7
:105900000A93FFF730B9039B0A9A1A644FF0FF33EA
:105910000122299518930C920693FFF73DBB00BF17
:10592000000024400000E03F00001C40FC820160B9
:1059300010830160EC82016010B5426904461F4B80
:10594000022A33D0042A31D0012A02D11C4A12681B
:105950001A60E268022A2BD0042A29D0012A03D136
:10596000174A1168174A11606268022A22D0042A75
:1059700020D0012A03D1124A1168134A11604FF452
:105980000032217E18680DF0CEFEA8B90D4B4FF401
:105990000032217C18680DF0C6FE68B90A4B217AE6
:1059A0000A4A1868BDE810400DF0BDBE084ACEE7AF
:1059B000074AD6E7064ADFE710BD00BFC8A3282084
:1059C000D0A32820C4A32820C0A3282010000100B1
:1059D000CCA32820124930B5A5B0D1F88C20D1F83D
:1059E000AC31D1F8CC02D1F8EC43D1F80C55D1F858
:1059F0002C16CDE90004CDE9025104A8094908F0AC
:105A0000E7FD04A8FCF75CFC04A9024606480EF07A
:105A1000C8FB064B18680DF092FE25B030BD00BFE4
:105A200050952820C0670160DCA32820D8A3282037
:105A30001B492DE9F0438A6BABB0CB6BD1F8580111
:105A4000D1F85C41D1F87852D1F87C62D1F89873E2
:105A5000D1F89CC3D1F8B8E4D1F8BC84D1F8D8957A
:105A6000D1F8DC15CDE906E8CDE9047CCDE9089153
:105A7000CDE900040B490AA8CDE9025608F0A8FDBB
:105A80000AA8FCF71DFC0AA9024607480EF089FB8C
:105A9000064B18680DF053FE2BB0BDE8F08300BF35
:105AA00050952820E5670160DCA32820D8A3282092
:105AB00010B50446FCF704FC0246054821460EF0EA
:105AC00070FB044BBDE8104018680DF038BE00BFF5
:105AD000DCA32820D8A3282007B5002300220548EE
:105AE000CDE900234FF47A7200230DF02DFE03B0B0
:105AF0005DF804FB189528202DE9F04F494DA1B021
:105B0000064600F10309AB460027A8462C2148466B
:105B100008F07EFD044600283AD0A0EB090A494669
:105B200068460137524604F1010908F037FE0AF1D0
:105B3000800368460BF5907B0DEB030A4FF00A03D8
:105B40000AF8803C08F004FAFDF7C8F9062F4BF874
:105B5000C80CDBD1344B1B78FBB93449684608F0DC
:105B6000BFFD334C6846FCF7ABFB69460246314843
:105B70000EF017FB20680DF0E2FD802231462D4823
:105B80000EF00FFB20680DF0DAFD21B0BDE8F08FBC
:105B90002921484608F03CFD40BB2749684608F0EB
:105BA0009FFD234C6846FCF78BFB69460246214863
:105BB0000EF0F7FA20680DF0C2FD802231461D4834
:105BC0000EF0EFFA20680DF0BAFD00234FF490704C
:105BD00000FB0382013305F59075916B062BD163B1
:105BE00055F8C42C45F8C82CF2D1CEE7A0EB090437
:105BF00049466846224608F0D1FD04F18003684614
:105C00000DEB03040A2304F8803C4FF4907408F071
:105C10009FF9FDF763F904FB0784052FA06599D070
:105C2000BBE700BF50952820C1B12820BA8501608C
:105C3000D8A32820DCA32820E785016038B50C4BC9
:105C40000C4653F82110FDF7A7FA0A4B054653F806
:105C50002400FDF74DFA01462846FDF79DFAFCF7B2
:105C6000EDFD0022044BFCF76BFFFDF7EFF838BDAC
:105C70000C89282024892820008076402DE9F04FC7
:105C8000524DA3B0074600F10309AB464FF00008A0
:105C90002E464FF00A0A2C21484608F0B9FC04466B
:105CA000002856D0A0EB0902494602A804F10109D8
:105CB000019208F073FD019A02A80BF5907B02F1A6
:105CC00088030DEB030202F880AC08F041F9FDF700
:105CD00005F94FF4907303FB086308F10108C3F85A
:105CE0009800B8F1060F5BF8F02CDA63D3D1384B8B
:105CF0001C789CBB374902A808F0F2FCDFF8D8807A
:105D000002A8FCF7DDFA02A9024634480EF049FA6F
:105D1000D8F800000DF013FD802239462F480EF010
:105D200040FAD8F800004FF490780DF008FD08FB19
:105D300004672146013405F59075D7F89800FFF700
:105D40007DFF062CC7F8900055F8F03CFB63EED1C0
:105D50001CE02921484608F05BFCD0B9204902A884
:105D600008F0BEFC1C4C02A8FCF7AAFA02A90246E5
:105D70001A480EF016FA20680DF0E1FC8022394630
:105D800016480EF00EFA20680DF0D9FC23B0BDE8DD
:105D9000F08FA0EB0904494602A8224608F0FEFC59
:105DA00004F1880302A80DEB03040A2304F8803CE5
:105DB00008F0CEF8FDF792F84FF49073B8F1050FA4
:105DC00003FB0863C3F8980091D0C7E750952820DB
:105DD000C1B1282037860160D8A32820DCA3282061
:105DE000648601602DE9F0478378A2B00646612BF6
:105DF0000BD005D8432B2BD0562B0CD0694805E08F
:105E0000762BFBD16848FFF753FE684822B0BDE807
:105E1000F047FFF74DBEDFF8988198F80040002C5E
:105E200040F09F80DFF88CA1071D6348FFF740FE1C
:105E30002C21384608F0ECFB0546002856D12921D4
:105E4000384608F0E5FB002840F08E805B4971E0A1
:105E50005B48FFF72DFEF2787379532A2DD0732A11
:105E600017D0502A40D1312B0AD164220023554843
:105E7000CDE90023142200230DF066FC5248C5E74B
:105E8000302B04D14F4810F0DDF85048BEE75048A1
:105E9000BCE7312B0AD1642200234E48CDE9002310
:105EA000142200230DF050FC4B48AFE7302BEED10D
:105EB000484810F0C7F84948A8E7312B0BD140F209
:105EC000DC5200234648CDE90023C82200230DF010
:105ED0003BFC44489AE7302B04D1414810F0B2F81B
:105EE000414893E7414891E741488FE7A0EB070914
:105EF000394602A86F1C4A4608F050FC09F1880395
:105F000002A80DEB03090A2309F8803C08F020F8E9
:105F1000FCF7E4FF2146FDF7CBFC4FF4907303FB45
:105F200004A30134062CD86382D198F80030002BEA
:105F30008CD1304902A8304C08F0D2FB02A8FCF703
:105F4000BFF902A902462D480EF02BF920680DF08A
:105F5000F6FB8022314629480EF023F920680DF027
:105F6000EEFB22B0BDE8F087C51B394602A82A46E1
:105F700008F014FC05F1880302A80DEB03050A23C1
:105F800005F8803C07F0E4FFFCF7A8FF2146FDF789
:105F90008FFC084B4FF49072052C02FB0433D8633E
:105FA000C3D053E742870160F1860160B486016087
:105FB000C1B1282050952820488901609E89016040
:105FC0002C870160709428206C870160A187016094
:105FD000D7870160A8942820228801605688016034
:105FE000389428208B880160B4880160DE880160C5
:105FF0001D8901607D890160D8A32820DCA32820A9
:10600000D0B50C46FCF708FC00220D4BFCF76EFCEB
:106010000C4B06460F4653F82400FDF769F80A4B6F
:1060200053F82410FDF7B8F8FCF708FC02460B46BD
:1060300030463946FCF784FDFCF750FFD0BD00BF69
:1060400000807640248928200C892820F8B5002477
:10605000074E4FF4907707FB046521460134D5F8CD
:106060008C00FFF7CDFF062CC5F89C00F3D1F8BDDE
:10607000509528202DE9F047AAB0FFF7E7FF1F4B06
:10608000D3F89C00D3F8BC61D3F8DC72D3F8FC835E
:10609000D3F81C95D3F83CA6FCF7D0FB04460D467C
:1060A0005046FCF7CBFBCDE908014846FCF7C6FBA0
:1060B000CDE906014046FCF7C1FBCDE904013846B5
:1060C000FCF7BCFBCDE902013046FCF7B7FB2B46E1
:1060D0002246CDE900010A490AA808F079FA0AA87F
:1060E000FCF7EEF80AA9024606480EF05AF8064BED
:1060F00018680DF024FB2AB0BDE8F08750952820E1
:1061000022680160DCA32820D8A328202DE9F04FC5
:10611000DFF80491A1B0074600F1030800254E46C0
:106120004FF00A0A2C21404608F072FA0446002873
:1061300046D0A0EB080B414668464FF490785A468B
:1061400009F5907908F02AFB0BF1800308FB05683C
:1061500068460DEB030B0BF880AC07F0F9FED8F89E
:106160008CB0FCF7BBFE2946FFF768FD01355844AB
:10617000062DC8F8900059F8F03CC8F83C3004F1FE
:106180000108CFD1254B1B78FBB925496846254C22
:1061900008F0A6FA6846FCF793F8694602462248DA
:1061A0000DF0FFFF20680DF0CAFA802239461E4824
:1061B0000DF0F7FF20680DF0C2FA21B0BDE8F08FB6
:1061C0002921404608F024FA08B91849DEE7A0EB77
:1061D000080441466846224608F0E0FA04F18003CC
:1061E00068460DEB03040A2304F8803C07F0B0FE78
:1061F0004FF4907303FB0564FCF770FE2946D4F856
:106200008C60FFF71BFD236B052D0644C4F89060DE
:10621000E363B7D0D9E700BF50952820C1B128204B
:10622000FD890160D8A32820DCA328202D8A0160E5
:10623000013810B4032805D8DFE800F0020F11136D
:106240000C4B1B68C8B201218140186900680142EB
:1062500009D052B19A68126909E0074BF1E7074B80
:10626000EFE7074BEDE7002AF4D09A68D2681846AA
:1062700010BC1047D0A32820CCA3282000A428209D
:10628000FCA3282073B54FF49073324C03FB0043FA
:1062900093F878201AB31A6F003A18BF01224FF40E
:1062A000907545436619D6E90301FFF7C1FFD6F89B
:1062B0009030D6F88C209B1A002BB8BF5B42C6F8F2
:1062C000883096F82D3043B90022002305F1A00054
:1062D000CDE9002320440DF037FA02B070BDD3F8A9
:1062E000905093F86C20D3F88C104FF490738D423B
:1062F00003FB0043D8BF82F0010293F86D10914276
:106300000AD0DD6B196C8D421DDA99634FF49073DE
:1063100003FB004383F86D204FF4907303FB0041AF
:10632000D1F89060D1F88050AE4201DDC1F89050B4
:1063300003FB0043D3F89050D3F884108D42AEDABB
:10634000C3F89010ABE7044909680129DED1D96B85
:10635000DBE700BF50952820088928202DE9F34766
:10636000314C81464FF000080026A4F1A00A002716
:106370004C4542D14FF49075012205FB08A504F865
:10638000732CD5F88830002B47DD14F8743C54E9A1
:106390002301002B3BD00022FFF74AFFD5F88830BD
:1063A000013BC5F88830D5F89020D5F88C309A425A
:1063B000D5F88C30CCBF013303F1FF33C5F88C30F6
:1063C00014F8743C83F0010304F8743C4FF49073A8
:1063D00003FB08A39A6B002A1CDD986B6422002340
:1063E000C117633041F10001FDF7C2F802460B46C8
:1063F0002046CDE900670DF0A7F908F1010804F582
:106400009074B8F1060FB3D102B0BDE8F087FFF782
:106410000FFFD5E700221346EAE7002304F8733C98
:1064200020460FF00FFEE8E7F095282037B5013839
:106430000C46032805D8DFE800F002181A1C0E4BA2
:106440001B681D699A6801A918465268904750B99F
:10645000019BE4B22A685A40012303FA04F4224261
:1064600014BF1846002003B030BD044BE8E7044BCE
:10647000E6E7044BE4E700BFD0A32820CCA3282004
:1064800000A42820FCA3282070B5C0B01349144DE7
:1064900000246846134E08F023F96846FBF710FF06
:1064A0006946024610480DF07CFE104B18680DF04E
:1064B00046F90134D5E90101FFF7B8FF224603464A
:1064C000314620A805F5907508F082F820A8FFF75E
:1064D000EFFA062CEDD140B070BD00BF5A680160E4
:1064E0005095282083680160DCA32820D8A32820A9
:1064F0002DE9F0474B4C01234B48A2B02146002226
:106500002646037091F879501DBB484A0121484F37
:10651000DFF82081DFF820910570117005F1010A84
:10652000D4E90101FFF782FF94F8792010BB12BB78
:106530000123626B84F878304FF4907303FB05639A
:10654000DA63216F3A68F1B9022A27D1D4F884209E
:106550001DE0013201F59071062AD3D1374C237822
:10656000002B4CD03648FFF7A3FA00232F4A2370A4
:10657000137005E0B2B1554604F59074062DCDD1E7
:1065800022B0BDE8F087022A04D1D4F88020C3F8F5
:106590009020F0E7D3F88C201432F8E7D3F88C2061
:1065A000143AF4E70123396884F8782084F87930C4
:1065B0004FF49073012903FB0563C3F88C2018D1B5
:1065C000226BDA63226C9A63E26FC3F89020524622
:1065D000414602A807F0FCFF02A8FBF771FE02A9E2
:1065E000024648460DF0DDFD164B18680DF0A7F881
:1065F000C1E70229EBD10021A165E165E5E7124879
:106600000FF020FD012311482370FFF751FA0022FB
:1066100000230D48CDE900234FF4FA7200230DF05A
:1066200093F8ADE750952820508C2820C1B1282040
:1066300008892820808A0160DCA32820C0B1282096
:10664000938A0160D8A32820E09428209E8A0160C4
:106650002DE9F043C678A3B0412E08D0303E062E77
:1066600006D93C4823B0BDE8F043FFF721BA002625
:10667000394B1B78002B6BD1384D06240127A846D7
:10668000A946D8E90101FFF7D1FE002808F5907866
:1066900018BF0027013CF4D1002F48D0013E3048FC
:1066A000FFF706FA052E24D82E48FFF701FA2E48E8
:1066B000FFF7FEF9A6421AD1686FFCF719FD696E63
:1066C000FCF76AFD0023A865013485F8793005F5EB
:1066D0009075062CEED1022200232448CDE9002338
:1066E000002200230DF030F823B0BDE8F0833B46D4
:1066F000EAE727464FF490761D48FFF7D9F9D5F819
:10670000802006FB049385F879700134C3F88C204F
:1067100005F5907555F8AC0CFCF7EAFC55F8BC1C77
:10672000FCF73AFD062C45F8C80CE8D1D3E711492F
:1067300002A807F0D5FF02A8FBF7C2FD02A9024696
:106740000D480DF02EFD0D4B18680CF0F8FFCBE74F
:106750000B49EDE7D28A0160C1B12820509528206D
:10676000098B0160208B0160628B0160E09428201E
:106770008C8B01609D8B0160DCA32820D8A328208E
:10678000D78B016010B503780446242B41D1FBF769
:1067900097FD204410F8013C292B3AD16378682BEF
:1067A0001FD00ED8532B2BD005D8412B33D0502BD4
:1067B0001CD0194811E0562BFBD12046FFF79CF95D
:1067C0000AE0742B21D005D8692B14D0722BF0D19C
:1067D000124802E0772BECD11148BDE81040FFF7DA
:1067E00067B92046BDE81040FFF732BF2046BDE83C
:1067F0001040FFF743BA2046BDE81040FFF786BCC3
:106800002046BDE81040FFF7EDBABDE81040FFF7A5
:1068100063B90448E1E710BD138C01600B8C016083
:10682000058C01603B8C0160F0B5C1B000213B4D8F
:1068300004467C2201A8009107F05AFEA3685B6C15
:10684000002B5AD1A3681B6C002B5CD1A3685B6B37
:10685000002B5DD1A3689B6943B180226946204625
:106860002F4F984700220646B24216DBA3685B6AA8
:10687000002B30D1A3681B6B002B31D1802229481B
:106880000DEB02010DF0E0FC021E2EDCA3681B6A7A
:10689000002BD3D020469847D0E72B681DF8020084
:1068A0007E2B84BF00232B600D28296803D94B1C45
:1068B00078542B600DE01C4B034113F00103F6D11B
:1068C0007F297B5402D83846FFF75CFF002332460D
:1068D0002B600132C8E7204698470028AED0C9E7B0
:1068E000204698470028A9D0C8E7A3685B69002B19
:1068F000A4D020A920469847A0E720469847002822
:10690000A0D141B0F0BD2046984700289ED1F8E7BD
:10691000204698470028A9D09CE700BFD4A3282090
:1069200040A92820DCA32820FEDBFFFF1C4B1D4ACA
:106930001D482DE9F04F1A60ABB01C4B00251C4AD6
:106940001C4C1A601C4B1D4A09951A601C4B1D4AB1
:1069500020601A600FF0A0F8002800F0E6822846B8
:1069600002F0DEFC0646002840F0DF82164B4FF4B2
:106970000062DA61154A58601A601861C3E90200C2
:10698000C3E905000421206809AA0CF0E5FE099B73
:106990004FF47A700021DBB90CF0E3FEF2E700BFA0
:1069A000D0A328201062016048610160CCA3282098
:1069B000FC610160D8A3282000A42820E8610160C0
:1069C000FCA32820D4610160DCA32820C0A92820D2
:1069D0000CF0C7FE206808AA01210CF0BDFE20685B
:1069E000836823B19B6C13B10022C8499847206883
:1069F00083689B6A03B198474FF4FA7000210CF04A
:106A0000B0FEC34BC34F4FF000090593C24B3D4648
:106A1000DFF808B33C460693B846C14BDFF804A341
:106A20000493C14B0793DBF800300F21059A2846E9
:106A30006B610BF1080B5BF8043C0AF1080AC5F81E
:106A40000090AB615AF8083CEB605AF8043C2B61AB
:106A500052F8043B0592069AEB6152F8043B2B6214
:106A6000049B06921B68079A6B60049B5B68AB6093
:106A700052F8043B6B62AD4B07924FF4907253F89F
:106A80002930AB62A34B02FB0932002309F1010953
:106A9000C2F88830C2F8883085F82C3085F82D305F
:106AA000A966012185F8783085F86C10C2F88C3021
:106AB000FEF742FF4FF4FA7000210CF052FE2B69F2
:106AC0004A469B4902930AA8EB680193AB6900937D
:106AD0006B6905F5907507F07BFD0AA8FBF7F0FBE5
:106AE0000AA9024693480DF05CFB934B18680CF022
:106AF00026FE4FF4FA7000210CF033FE049BB9F12E
:106B0000060F03F1180304938DD1DFF83092D9F802
:106B10000030012B00F00D82022B40F00C828848DF
:106B2000FEF7C6FF874A0021DFF81CA21046059237
:106B3000FCF7BEFE012120635046FCF7B9FE834BF3
:106B4000DFF80CB20221834DC4F8500118460493BB
:106B5000FCF7AEFE0321C4F870025846FCF7A8FE0D
:106B60000421C4F890032846FCF7A2FE0521C4F8CE
:106B7000B0042846FCF79CFE049B059A0021C4F84B
:106B8000D00575482266C4F8A032C4F880A1C4F8C4
:106B9000C0B34FF0000BC4F8E054C4F80056FCF743
:106BA00087FE012160636D480125FCF781FE02210B
:106BB000C4F854016848FCF77BFE0321C4F8740252
:106BC0006548FCF775FE0421C4F894035046FCF7B1
:106BD0006FFE0521C4F8B4045F48FCF769FEDFF8D6
:106BE00080A1604B0021604AC4F8D4055F48C4F816
:106BF0008431C4F8E4340493C4F80426C4F864A0CF
:106C0000C4F8A4A2C4F8C4A3FCF752FE0121206476
:106C10005648FCF74DFE0221C4F860015348FCF7CA
:106C200047FE0321C4F880025048FCF741FE0421CE
:106C3000C4F8A0034D48FCF73BFE0521C4F8C0048E
:106C40004A48FCF735FE4FF0FF325946C4F8E005DC
:106C50004748C4F8D423C4F8F4242567C4F89051F5
:106C6000C4F8B052C4F8F054C4F810566567C4F8BC
:106C70009451C4F8B452C4F8D0B3C4F81456FCF715
:106C800017FE049B294660651846FCF711FE049B1D
:106C90000221C4F874011846FCF70AFE0321C4F867
:106CA00094025046FCF704FE0421C4F8B403504695
:106CB000FCF7FEFD4FF0020A0521C4F8D4044FF0A2
:106CC0007E50FCF7F5FD5946C4F8F4052748C4F892
:106CD00050A0C4F87051C4F890A2C4F8B0A3C4F88E
:106CE000D0A4C4F8F0A5FEF7A9FF2946C4F8940083
:106CF0001E48FEF7A3FF5146C4F8B4011B48FEF737
:106D00009DFF0321C4F8D40234E000BF296800606D
:106D1000E489282050952820CC8928202C8A2820F6
:106D20003C892820FC892820248928200C892820B7
:106D3000638C0160DCA32820D8A3282008892820A0
:106D4000928C01600000A0420000204200007042CE
:106D50000000DC420000B4420000A041000060419D
:106D60000000704100002041000048420000404007
:106D7000000050417448FEF761FF0421C4F8F40399
:106D80007148FEF75BFF0521C4F814056E48FEF755
:106D900055FF5946C4F834066C48FEF74FFF3238A9
:106DA00029466B4DC4F880006848FEF747FF32382B
:106DB00051464FF0000AC4F8A0016648FEF73EFFB6
:106DC00032380321C4F8C0026048FEF737FF32387A
:106DD0000421C4F8E0035D48FEF730FF3238052196
:106DE000C4F800055C48FEF729FF3238C4F82006D5
:106DF0003B6F4FF4907431462846B3FA83F304FB9B
:106E0000068401365B0987F86C307B6BE363C7F857
:106E100058A0C7F85CA0FCF74BFD3B6C78640022DF
:106E200007F1A0004D49A3630FF000F907F1D80066
:106E300000224B4907F590770FF0F8F8062ED7D1CE
:106E400000214848FEF7FAFE0121C8F87C00012421
:106E500045480025FEF7F2FE0221C8F89C01434890
:106E6000FEF7ECFE0321C8F8BC024148FEF7E6FE3F
:106E70000421C8F8DC033F48FEF7E0FE0521C8F80E
:106E8000FC043D48FEF7DAFE00223C49C8F81C0627
:106E90003B480FF0CBF800223A493B480FF0C6F8C8
:106EA00000223A493A480FF0C1F8002239493A48DD
:106EB0000FF0BCF80022394939480FF0B7F800222A
:106EC000384939480FF0B2F802220023374F3048D2
:106ED000CDE90023002200230CF036FCD9F8003065
:106EE000012B12D157F8840C6422002320EAE070B1
:106EF000C117633041F10001FCF73AFB0122002386
:106F0000CDE9000138460CF01FFCD9F80030022B07
:106F100007D14FF4FA7200233846CDE900450CF052
:106F200013FC013E07F59077D8D100202BB0BDE8C7
:106F3000F08F1F48F4E51F48FEF7BAFD4CF25030C1
:106F400000210CF00EFCEDE5000040400000344351
:106F50000AD7233C00000C43804FC3475D630060A9
:106F60002139006000007042000034420000A0415E
:106F70000000DC420000FF420000704189640060B4
:106F800018952820F1640060E0942820893701607A
:106F9000009428207560006070942820D559006006
:106FA000A8942820315A0060389428202896282058
:106FB000AA8C0160C28C0160F0B5124B062142F22E
:106FC000107044F6206500224FF0FA0C0A2746267E
:106FD00000240139986383F86D20D86383F8792001
:106FE000C3F88C20C3F88460C3F89840C3F89C4071
:106FF000C3E91050C3E9122CC3E9147503F590736B
:10700000E7D1F0BD509528202DE9F04F91B08407CD
:1070100005460E46009302F00403DDF868800293F3
:10702000C2F3C203039203F10103059340F0BA8156
:10703000041D30B1072909D86FF01B0011B0BDE85D
:10704000F08F01F007063444C6F10806009B4FF0AC
:1070500000094FF0040A591E4FF0FF334F46CB464C
:1070600001935346CDF810900DB1009A2260059817
:10707000002800F3E8809848009A824203D397489A
:107080008242C0F0E080039AA4EB050E92074FEA1B
:107090009E0000F103810F2F00F2B180002D00F05F
:1070A000058107F140020DEB020C019A0CF8200C4F
:1070B0000CF8102C049801300490E7E07A285DD891
:1070C0004B280ED8472859D829282DD8252852D002
:1070D00054D820287AD02338D0F1000B4BEB000B8A
:1070E00074E04C382E2849D8DFE800F07048484852
:1070F00048484848484848484B484848484848480D
:107100004859484B4B595959704B6D487048184B6A
:10711000184848827F4B48484B487F0000204FF07A
:10712000000B4FF0040A38E02A380122C0B202FAFC
:1071300000F010EA0E0F49D110F0625C2FD110EA76
:10714000020B43D06046013C5444B4FBFAF40AFB02
:1071500004F4002D61D0A3EB050CA444B4453FF624
:107160006BAF002868D1042B47D158F8043B23604B
:10717000043404232AE0019A013A01924FF0000BF3
:1071800024E011F8010C6C2834D111F8023C0020E5
:107190006C2B8346C5D14FF0080A5346D3E708F15C
:1071A0000708073428F0070824F00704F8E802ABC2
:1071B00035B106982044B0423FF63EAFC4E900AB7B
:1071C00008344FF0000B4FF0080A534611F8010F36
:1071D000002878D0BBF1000F7FF470AF2528F5D1DF
:1071E000019B4FF0010B013301934FF0040AECE7D0
:1071F000584694E700208346A5E7082B02D06FF09D
:1072000015001BE708F1070828F00708F8E8022333
:10721000C4E9002308340823D8E768B9042B02D155
:1072200008F10408A4E7082BE9D108F1070828F0C1
:10723000070808F10808EDE7059A013A059258F8A1
:10724000042B009210E7039A900720D5A4EB050EBB
:107250004FF0010C4FEA9E00BEF5007FCFD20F2FFA
:10726000CDD8F5B107F14002C0B20DEB020E019A84
:107270000EF8200C0EF8102CBCF1000F3FF41AAFE2
:1072800060F07F0009F101090EF8200C0137C5F10B
:10729000080204344FF6DA7E069297E74FF0000CAE
:1072A000DAE7BCF1000F01D00136EFE702980236B1
:1072B0000028EBD10098CDE90631FBF701F8064430
:1072C000DDE90631E2E7631BB3F5806F97D23DB984
:1072D000A6F10804E018B1E684600160C89B016073
:1072E0009B08029A28602B709DF81030C2B1EB7099
:1072F00085F80290B9F1000F05D008A80022C5F169
:10730000010C97420ED1C5F101030DF120084FF099
:10731000000A0DF1300B0193574512D1601B8DE629
:107320006B70E5E710F8013B190608D50CEB040E6D
:1073300003F07F03B6453FF67FAE04F8013B013210
:10734000DFE7B9F1000F03D098F90020002A17DB1E
:10735000029BD3B11AF80B2004F8012B0022019BE9
:1073600018191044B0423FF667AE98F80000009933
:1073700004F8010B20460392FBF762F8039A1444C9
:107380000AF1010A08F10108C6E798F8002055F84B
:1073900022300093029B009845F82230FAF790FFC4
:1073A000421CDCE76FF00D0048E600BF2DE9F04F0E
:1073B00097B00446894600AF90F802A0D7F880B095
:1073C0003B62CBF3C003FA62BB6141B945780078F8
:1073D0000AEB800020444D4517D8A0EB0409E37860
:1073E000FB61BAF1000F02D01BF0010F16D1FB694F
:1073F00053BBFB6A1BB13A6A4946204698474D4643
:1074000028465C37BD46BDE8F08F461C09F10109EE
:107410003046FAF755FF01303044DCE723786268E4
:1074200099007A62FA6A796104EB8301002A40F0DC
:1074300000814D460E4601EB0A094FF000084E450B
:107440004CD101EB0A0610E01BF0020FD1D02378DB
:107450009A0004EB83017A6162687A62FA6A002A10
:1074600077D14D4601EB0A0690461BF0050F0CBF85
:1074700002230123FB62FB6906EB430A0BF00203C4
:10748000BB625645BCD016F8021B16F8013C54F8F6
:107490002390994B994502D3984B994536D3BB69B4
:1074A000002B40D0786A0CF075FB00283BD0E946F1
:1074B0008AB06A46924B53617B6AC2E906314FF447
:1074C000007313848F4B42F8103F00234FF4125186
:1074D0008D48023D01F0A2F8CD46D2E716F8013BF7
:1074E000F96254F82300FAF7EBFED7F88430013044
:1074F000F96A4BB1D7F8883098453EBFD7F8843049
:1075000023F8180008F10108054498E7BB6923B186
:10751000786A0CF03FFB0028C9D11BF0010F05D1A0
:10752000FB6AED1AADE7BB6A002BAAD04846FAF712
:10753000C7FED7F8843053B1D7F8883098453FBF9D
:10754000431CD7F8842022F8183008F101080544BC
:1075500097E7BAF1000F72D01BF0040672D0D04644
:10756000002607F1480052463B61B962FAF768FF0E
:10757000B96A3B6901EB0A02F969BA62FA69520019
:10758000FA60BA6A02EB41023A610BF00202BA6099
:107590003A69B96A8A4257D11BF0020F62780CBF70
:1075A0004FEA580100217A621BF0010F3244D2B237
:1075B00040F09F801BF0040F14BF40460020BB61C9
:1075C0006270A0702046E1703A6A7969FB6A984758
:1075D000051EFFF615AFBB6941463A6A07F1480040
:1075E00023707B6A84F802A06370FB69E370FB6A16
:1075F0009847B0F10008C0F2BB807B69A9EB0A0193
:107600003A6AC91AFB68C91AD7E90A0398470028D9
:10761000C0F2B080A8444FF0000B07F1380A08EB25
:107620000005B34572D300213A6AFB6A08469847C1
:10763000E6E656464FF0000807F1380093E7564655
:10764000D04697E7B04695E7BA6A12F8021B12F8DF
:10765000015CBA6254F82500274A904202D3274AB7
:1076600090421ED3BA6932B1786A7B600CF092FA0C
:107670007B6800288CD1BA6802BB08F1280207F1A8
:10768000300C08F1010008F10208944407F1580297
:107690005FFA88F852FA80F00CF8101C00F8105CC1
:1076A00076E7BA693AB1786A7B600CF073FA7B6866
:1076B00000287FF46DAF1BF0010F09D006F12802FE
:1076C00007F13000711C161806F8205CCEB25FE797
:1076D0001BF0040F3FF45CAF08F1280207F1300003
:1076E00008F1010102EB000808F8105C5FFA81F86C
:1076F0004EE7002063E700BF84600160C89B016023
:107700000C8D016004000001346701601BF80A3031
:1077100054F8239087F83730D7F884302BB3D7F854
:1077200088309B4521D2D7F8843033F81B803A6AE1
:10773000012107F13700FB6A984700281ADB05444E
:10774000B8F1000F06D14846FAF7BAFD00F101087A
:107750001FFA88F83A6A41464846FB6A984700286B
:1077600008DB05440BF1010B5BE74FF00008DEE797
:10777000454645E6054643E6014B1860704700BFA5
:107780005C8A282030B5002587B004460095059511
:10779000CDE9030103A9054800F06EF8DDE90430E6
:1077A0009842B8BF255407B030BD00BFE33B01602D
:1077B000F0B502460168084E00200A270B46013149
:1077C0001C78355D6D0701D41360F0BD07FB0043E5
:1077D000A3F13000F2E700BF4D8101602DE9F84FC1
:1077E00015469A46D3788146224A0F466F2B12F8E7
:1077F00003B00BF0030B2BD026D8582B0CBF102650
:107800000A26DDF828803246002348463946FBF731
:10781000AFFE092A08F1FF38D4B21ED83034B14582
:10782000E4B277F1000788F8004001D3D04511D8C1
:107830002B789B0605D5082E15D1AB7843F00803AD
:10784000AB704046BDE8F88F03F0F703702BD5E727
:107850000826D6E781460F46D5E7BBF1010F0CBFDE
:1078600037345734DBE7102EEBD1AB7843F01003FD
:10787000E6E700BF4D8101602DE9F04F8A4697B0E1
:1078800016461C4600250390307808B9284656E372
:1078900025280AD05146039B98470028C0F24F8301
:1078A000731C01350493049EEEE71822002110A8F2
:1078B00006F01EFE7378252B00F0A3800023711CB8
:1078C00098469E469C4618460F4611F8012B2B2AD7
:1078D00000F0C68000F2BD80202A00F0C480232A78
:1078E00000F0C4802BB19DF8483043F040038DF880
:1078F0004830B8F1000F05D09DF8483043F0200320
:107900008DF84830BEF1000F05D09DF8483043F0A7
:1079100010038DF84830BCF1000F05D09DF84830B9
:1079200043F008038DF8483028B19DF8483043F003
:1079300004038DF848309DF8483003F04401442991
:1079400003D16FF386138DF848309DF848302A2A0A
:10795000099743F080038DF8483040F08C809DF803
:10796000493043F001038DF849307B1C1A782E2AE8
:107970009DF849200CBF0121002161F341028DF8DF
:1079800049200CD15A1C09925A782A2A40F0838047
:107990009DF84920023342F004028DF849201A78FC
:1079A0006C2A00F0A48000F28680682A00F08C80A7
:1079B0006A2A00F0A5804C2A00F0AA801A4612F824
:1079C000013B782B04928DF84B309DF8492000F252
:1079D00017816D2B00F2A980692B00F21181572BC2
:1079E00000F2BE80412B03D0453B022B00F2088100
:1079F0009DF84A30042262F302038DF84A300123D5
:107A0000CAE08DF84B30B31C04939DF84930D90778
:107A100040F1FD8054F8048BB8F1000F07DA9DF8AF
:107A20004820C8F1000842F004028DF848205A07A7
:107A300040F1F68054F804BBBBF1000F80F2F580F2
:107A40009DF849306FF341038DF849304FF0FF3B0B
:107A5000EBE02D2A0DD0302A7FF444AF012333E729
:107A60004FF0010C30E74FF0010E2DE74FF0010809
:107A70002AE7012028E709A8FFF79AFE099BBB42E5
:107A80003FF474AF9DF848201390C00F60F341029B
